{
  "contractName": "NFT",
  "abi": [
    {
      "inputs": [
        {
          "internalType": "string",
          "name": "_name",
          "type": "string"
        },
        {
          "internalType": "string",
          "name": "_symbol",
          "type": "string"
        }
      ],
      "stateMutability": "nonpayable",
      "type": "constructor"
    },
    {
      "anonymous": false,
      "inputs": [
        {
          "indexed": true,
          "internalType": "address",
          "name": "owner",
          "type": "address"
        },
        {
          "indexed": true,
          "internalType": "address",
          "name": "spender",
          "type": "address"
        },
        {
          "indexed": true,
          "internalType": "uint256",
          "name": "id",
          "type": "uint256"
        }
      ],
      "name": "Approval",
      "type": "event"
    },
    {
      "anonymous": false,
      "inputs": [
        {
          "indexed": true,
          "internalType": "address",
          "name": "owner",
          "type": "address"
        },
        {
          "indexed": true,
          "internalType": "address",
          "name": "operator",
          "type": "address"
        },
        {
          "indexed": false,
          "internalType": "bool",
          "name": "approved",
          "type": "bool"
        }
      ],
      "name": "ApprovalForAll",
      "type": "event"
    },
    {
      "anonymous": false,
      "inputs": [
        {
          "indexed": true,
          "internalType": "address",
          "name": "from",
          "type": "address"
        },
        {
          "indexed": true,
          "internalType": "address",
          "name": "to",
          "type": "address"
        },
        {
          "indexed": true,
          "internalType": "uint256",
          "name": "id",
          "type": "uint256"
        }
      ],
      "name": "Transfer",
      "type": "event"
    },
    {
      "inputs": [
        {
          "internalType": "address",
          "name": "spender",
          "type": "address"
        },
        {
          "internalType": "uint256",
          "name": "id",
          "type": "uint256"
        }
      ],
      "name": "approve",
      "outputs": [],
      "stateMutability": "nonpayable",
      "type": "function"
    },
    {
      "inputs": [
        {
          "internalType": "address",
          "name": "owner",
          "type": "address"
        }
      ],
      "name": "balanceOf",
      "outputs": [
        {
          "internalType": "uint256",
          "name": "",
          "type": "uint256"
        }
      ],
      "stateMutability": "view",
      "type": "function",
      "constant": true
    },
    {
      "inputs": [],
      "name": "currentTokenId",
      "outputs": [
        {
          "internalType": "uint256",
          "name": "",
          "type": "uint256"
        }
      ],
      "stateMutability": "view",
      "type": "function",
      "constant": true
    },
    {
      "inputs": [],
      "name": "gasLimit",
      "outputs": [
        {
          "internalType": "uint256",
          "name": "",
          "type": "uint256"
        }
      ],
      "stateMutability": "view",
      "type": "function",
      "constant": true
    },
    {
      "inputs": [],
      "name": "gasPrice",
      "outputs": [
        {
          "internalType": "uint256",
          "name": "",
          "type": "uint256"
        }
      ],
      "stateMutability": "view",
      "type": "function",
      "constant": true
    },
    {
      "inputs": [
        {
          "internalType": "uint256",
          "name": "",
          "type": "uint256"
        }
      ],
      "name": "getApproved",
      "outputs": [
        {
          "internalType": "address",
          "name": "",
          "type": "address"
        }
      ],
      "stateMutability": "view",
      "type": "function",
      "constant": true
    },
    {
      "inputs": [
        {
          "internalType": "address",
          "name": "",
          "type": "address"
        },
        {
          "internalType": "address",
          "name": "",
          "type": "address"
        }
      ],
      "name": "isApprovedForAll",
      "outputs": [
        {
          "internalType": "bool",
          "name": "",
          "type": "bool"
        }
      ],
      "stateMutability": "view",
      "type": "function",
      "constant": true
    },
    {
      "inputs": [],
      "name": "name",
      "outputs": [
        {
          "internalType": "string",
          "name": "",
          "type": "string"
        }
      ],
      "stateMutability": "view",
      "type": "function",
      "constant": true
    },
    {
      "inputs": [
        {
          "internalType": "address",
          "name": "",
          "type": "address"
        },
        {
          "internalType": "uint256",
          "name": "",
          "type": "uint256"
        }
      ],
      "name": "ownedTokens",
      "outputs": [
        {
          "internalType": "uint256",
          "name": "",
          "type": "uint256"
        }
      ],
      "stateMutability": "view",
      "type": "function",
      "constant": true
    },
    {
      "inputs": [],
      "name": "owner",
      "outputs": [
        {
          "internalType": "address",
          "name": "",
          "type": "address"
        }
      ],
      "stateMutability": "view",
      "type": "function",
      "constant": true
    },
    {
      "inputs": [
        {
          "internalType": "uint256",
          "name": "id",
          "type": "uint256"
        }
      ],
      "name": "ownerOf",
      "outputs": [
        {
          "internalType": "address",
          "name": "owner",
          "type": "address"
        }
      ],
      "stateMutability": "view",
      "type": "function",
      "constant": true
    },
    {
      "inputs": [
        {
          "internalType": "address",
          "name": "from",
          "type": "address"
        },
        {
          "internalType": "address",
          "name": "to",
          "type": "address"
        },
        {
          "internalType": "uint256",
          "name": "id",
          "type": "uint256"
        }
      ],
      "name": "safeTransferFrom",
      "outputs": [],
      "stateMutability": "nonpayable",
      "type": "function"
    },
    {
      "inputs": [
        {
          "internalType": "address",
          "name": "from",
          "type": "address"
        },
        {
          "internalType": "address",
          "name": "to",
          "type": "address"
        },
        {
          "internalType": "uint256",
          "name": "id",
          "type": "uint256"
        },
        {
          "internalType": "bytes",
          "name": "data",
          "type": "bytes"
        }
      ],
      "name": "safeTransferFrom",
      "outputs": [],
      "stateMutability": "nonpayable",
      "type": "function"
    },
    {
      "inputs": [
        {
          "internalType": "address",
          "name": "operator",
          "type": "address"
        },
        {
          "internalType": "bool",
          "name": "approved",
          "type": "bool"
        }
      ],
      "name": "setApprovalForAll",
      "outputs": [],
      "stateMutability": "nonpayable",
      "type": "function"
    },
    {
      "inputs": [
        {
          "internalType": "bytes4",
          "name": "interfaceId",
          "type": "bytes4"
        }
      ],
      "name": "supportsInterface",
      "outputs": [
        {
          "internalType": "bool",
          "name": "",
          "type": "bool"
        }
      ],
      "stateMutability": "view",
      "type": "function",
      "constant": true
    },
    {
      "inputs": [],
      "name": "symbol",
      "outputs": [
        {
          "internalType": "string",
          "name": "",
          "type": "string"
        }
      ],
      "stateMutability": "view",
      "type": "function",
      "constant": true
    },
    {
      "inputs": [
        {
          "internalType": "uint256",
          "name": "",
          "type": "uint256"
        }
      ],
      "name": "tokenMetaData",
      "outputs": [
        {
          "internalType": "string",
          "name": "name",
          "type": "string"
        },
        {
          "internalType": "string",
          "name": "imageURI",
          "type": "string"
        },
        {
          "internalType": "string",
          "name": "audioURI",
          "type": "string"
        },
        {
          "internalType": "address",
          "name": "owner",
          "type": "address"
        }
      ],
      "stateMutability": "view",
      "type": "function",
      "constant": true
    },
    {
      "inputs": [
        {
          "internalType": "address",
          "name": "from",
          "type": "address"
        },
        {
          "internalType": "address",
          "name": "to",
          "type": "address"
        },
        {
          "internalType": "uint256",
          "name": "id",
          "type": "uint256"
        }
      ],
      "name": "transferFrom",
      "outputs": [],
      "stateMutability": "nonpayable",
      "type": "function"
    },
    {
      "inputs": [
        {
          "internalType": "uint256",
          "name": "_gasLimit",
          "type": "uint256"
        },
        {
          "internalType": "uint256",
          "name": "_gasPrice",
          "type": "uint256"
        }
      ],
      "name": "setGasParameters",
      "outputs": [],
      "stateMutability": "nonpayable",
      "type": "function"
    },
    {
      "inputs": [
        {
          "internalType": "string",
          "name": "_name",
          "type": "string"
        },
        {
          "internalType": "string",
          "name": "_imageURI",
          "type": "string"
        },
        {
          "internalType": "string",
          "name": "_audioURI",
          "type": "string"
        }
      ],
      "name": "mintTo",
      "outputs": [
        {
          "internalType": "uint256",
          "name": "",
          "type": "uint256"
        }
      ],
      "stateMutability": "payable",
      "type": "function",
      "payable": true
    },
    {
      "inputs": [
        {
          "internalType": "uint256",
          "name": "id",
          "type": "uint256"
        }
      ],
      "name": "tokenURI",
      "outputs": [
        {
          "internalType": "string",
          "name": "",
          "type": "string"
        }
      ],
      "stateMutability": "view",
      "type": "function",
      "constant": true
    },
    {
      "inputs": [
        {
          "internalType": "address",
          "name": "ownerAddress",
          "type": "address"
        }
      ],
      "name": "getOwnedTokenIDs",
      "outputs": [
        {
          "internalType": "uint256[]",
          "name": "",
          "type": "uint256[]"
        }
      ],
      "stateMutability": "view",
      "type": "function",
      "constant": true
    },
    {
      "inputs": [
        {
          "internalType": "address",
          "name": "_addr",
          "type": "address"
        }
      ],
      "name": "addressToString",
      "outputs": [
        {
          "internalType": "string",
          "name": "",
          "type": "string"
        }
      ],
      "stateMutability": "pure",
      "type": "function",
      "constant": true
    }
  ],
  "bytecode": "0x60806040523480156200001157600080fd5b5060405162003c5538038062003c5583398181016040528101906200003791906200023b565b818181600090816200004a91906200050b565b5080600190816200005c91906200050b565b50505033600660006101000a81548173ffffffffffffffffffffffffffffffffffffffff021916908373ffffffffffffffffffffffffffffffffffffffff1602179055505050620005f2565b6000604051905090565b600080fd5b600080fd5b600080fd5b600080fd5b6000601f19601f8301169050919050565b7f4e487b7100000000000000000000000000000000000000000000000000000000600052604160045260246000fd5b6200011182620000c6565b810181811067ffffffffffffffff82111715620001335762000132620000d7565b5b80604052505050565b600062000148620000a8565b905062000156828262000106565b919050565b600067ffffffffffffffff821115620001795762000178620000d7565b5b6200018482620000c6565b9050602081019050919050565b60005b83811015620001b157808201518184015260208101905062000194565b60008484015250505050565b6000620001d4620001ce846200015b565b6200013c565b905082815260208101848484011115620001f357620001f2620000c1565b5b6200020084828562000191565b509392505050565b600082601f83011262000220576200021f620000bc565b5b815162000232848260208601620001bd565b91505092915050565b60008060408385031215620002555762000254620000b2565b5b600083015167ffffffffffffffff811115620002765762000275620000b7565b5b620002848582860162000208565b925050602083015167ffffffffffffffff811115620002a857620002a7620000b7565b5b620002b68582860162000208565b9150509250929050565b600081519050919050565b7f4e487b7100000000000000000000000000000000000000000000000000000000600052602260045260246000fd5b600060028204905060018216806200031357607f821691505b602082108103620003295762000328620002cb565b5b50919050565b60008190508160005260206000209050919050565b60006020601f8301049050919050565b600082821b905092915050565b600060088302620003937fffffffffffffffffffffffffffffffffffffffffffffffffffffffffffffffff8262000354565b6200039f868362000354565b95508019841693508086168417925050509392505050565b6000819050919050565b6000819050919050565b6000620003ec620003e6620003e084620003b7565b620003c1565b620003b7565b9050919050565b6000819050919050565b6200040883620003cb565b620004206200041782620003f3565b84845462000361565b825550505050565b600090565b6200043762000428565b62000444818484620003fd565b505050565b5b818110156200046c57620004606000826200042d565b6001810190506200044a565b5050565b601f821115620004bb5762000485816200032f565b620004908462000344565b81016020851015620004a0578190505b620004b8620004af8562000344565b83018262000449565b50505b505050565b600082821c905092915050565b6000620004e060001984600802620004c0565b1980831691505092915050565b6000620004fb8383620004cd565b9150826002028217905092915050565b6200051682620002c0565b67ffffffffffffffff811115620005325762000531620000d7565b5b6200053e8254620002fa565b6200054b82828562000470565b600060209050601f8311600181146200058357600084156200056e578287015190505b6200057a8582620004ed565b865550620005ea565b601f19841662000593866200032f565b60005b82811015620005bd5784890151825560018201915060208501945060208101905062000596565b86831015620005dd5784890151620005d9601f891682620004cd565b8355505b6001600288020188555050505b505050505050565b61365380620006026000396000f3fe60806040526004361061013f5760003560e01c806370a08231116100b6578063c87b56dd1161006f578063c87b56dd14610487578063e149f036146104c4578063e985e9c514610501578063f68016b71461053e578063f803490b14610569578063fe173b97146105a65761013f565b806370a08231146103625780638da5cb5b1461039f57806395d89b41146103ca578063a22cb465146103f5578063af6a34761461041e578063b88d4fde1461045e5761013f565b8063193ba97711610108578063193ba9771461023d57806323b872dd1461026657806342842e0e1461028f57806355f4e7e2146102b85780635e57966d146102e85780636352211e146103255761013f565b80629a9b7b1461014457806301ffc9a71461016f57806306fdde03146101ac578063081812fc146101d7578063095ea7b314610214575b600080fd5b34801561015057600080fd5b506101596105d1565b60405161016691906121b8565b60405180910390f35b34801561017b57600080fd5b506101966004803603810190610191919061223f565b6105d7565b6040516101a39190612287565b60405180910390f35b3480156101b857600080fd5b506101c1610669565b6040516101ce9190612332565b60405180910390f35b3480156101e357600080fd5b506101fe60048036038101906101f99190612380565b6106f7565b60405161020b91906123ee565b60405180910390f35b34801561022057600080fd5b5061023b60048036038101906102369190612435565b61072a565b005b34801561024957600080fd5b50610264600480360381019061025f9190612475565b610913565b005b34801561027257600080fd5b5061028d600480360381019061028891906124b5565b6109b5565b005b34801561029b57600080fd5b506102b660048036038101906102b191906124b5565b610db4565b005b6102d260048036038101906102cd919061263d565b610eec565b6040516102df91906121b8565b60405180910390f35b3480156102f457600080fd5b5061030f600480360381019061030a91906126e4565b611123565b60405161031c9190612332565b60405180910390f35b34801561033157600080fd5b5061034c60048036038101906103479190612380565b6113ed565b60405161035991906123ee565b60405180910390f35b34801561036e57600080fd5b50610389600480360381019061038491906126e4565b611498565b60405161039691906121b8565b60405180910390f35b3480156103ab57600080fd5b506103b461154f565b6040516103c191906123ee565b60405180910390f35b3480156103d657600080fd5b506103df611575565b6040516103ec9190612332565b60405180910390f35b34801561040157600080fd5b5061041c6004803603810190610417919061273d565b611603565b005b34801561042a57600080fd5b5061044560048036038101906104409190612380565b611700565b604051610455949392919061277d565b60405180910390f35b34801561046a57600080fd5b5061048560048036038101906104809190612837565b6118e8565b005b34801561049357600080fd5b506104ae60048036038101906104a99190612380565b611a26565b6040516104bb9190612332565b60405180910390f35b3480156104d057600080fd5b506104eb60048036038101906104e69190612435565b611ce4565b6040516104f891906121b8565b60405180910390f35b34801561050d57600080fd5b50610528600480360381019061052391906128bf565b611d15565b6040516105359190612287565b60405180910390f35b34801561054a57600080fd5b50610553611d44565b60405161056091906121b8565b60405180910390f35b34801561057557600080fd5b50610590600480360381019061058b91906126e4565b611d4a565b60405161059d91906129bd565b60405180910390f35b3480156105b257600080fd5b506105bb611de1565b6040516105c891906121b8565b60405180910390f35b60075481565b60006301ffc9a760e01b827bffffffffffffffffffffffffffffffffffffffffffffffffffffffff1916148061063257506380ac58cd60e01b827bffffffffffffffffffffffffffffffffffffffffffffffffffffffff1916145b806106625750635b5e139f60e01b827bffffffffffffffffffffffffffffffffffffffffffffffffffffffff1916145b9050919050565b6000805461067690612a0e565b80601f01602080910402602001604051908101604052809291908181526020018280546106a290612a0e565b80156106ef5780601f106106c4576101008083540402835291602001916106ef565b820191906000526020600020905b8154815290600101906020018083116106d257829003601f168201915b505050505081565b60046020528060005260406000206000915054906101000a900473ffffffffffffffffffffffffffffffffffffffff1681565b60006002600083815260200190815260200160002060009054906101000a900473ffffffffffffffffffffffffffffffffffffffff1690508073ffffffffffffffffffffffffffffffffffffffff163373ffffffffffffffffffffffffffffffffffffffff1614806108225750600560008273ffffffffffffffffffffffffffffffffffffffff1673ffffffffffffffffffffffffffffffffffffffff16815260200190815260200160002060003373ffffffffffffffffffffffffffffffffffffffff1673ffffffffffffffffffffffffffffffffffffffff16815260200190815260200160002060009054906101000a900460ff165b610861576040517f08c379a000000000000000000000000000000000000000000000000000000000815260040161085890612a8b565b60405180910390fd5b826004600084815260200190815260200160002060006101000a81548173ffffffffffffffffffffffffffffffffffffffff021916908373ffffffffffffffffffffffffffffffffffffffff160217905550818373ffffffffffffffffffffffffffffffffffffffff168273ffffffffffffffffffffffffffffffffffffffff167f8c5be1e5ebec7d5bd14f71427d1e84f3dd0314c0f7b2291e5b200ac8c7c3b92560405160405180910390a4505050565b600660009054906101000a900473ffffffffffffffffffffffffffffffffffffffff1673ffffffffffffffffffffffffffffffffffffffff163373ffffffffffffffffffffffffffffffffffffffff16146109a3576040517f08c379a000000000000000000000000000000000000000000000000000000000815260040161099a90612af7565b60405180910390fd5b81600881905550806009819055505050565b6002600082815260200190815260200160002060009054906101000a900473ffffffffffffffffffffffffffffffffffffffff1673ffffffffffffffffffffffffffffffffffffffff168373ffffffffffffffffffffffffffffffffffffffff1614610a56576040517f08c379a0000000000000000000000000000000000000000000000000000000008152600401610a4d90612b63565b60405180910390fd5b600073ffffffffffffffffffffffffffffffffffffffff168273ffffffffffffffffffffffffffffffffffffffff1603610ac5576040517f08c379a0000000000000000000000000000000000000000000000000000000008152600401610abc90612bcf565b60405180910390fd5b8273ffffffffffffffffffffffffffffffffffffffff163373ffffffffffffffffffffffffffffffffffffffff161480610b855750600560008473ffffffffffffffffffffffffffffffffffffffff1673ffffffffffffffffffffffffffffffffffffffff16815260200190815260200160002060003373ffffffffffffffffffffffffffffffffffffffff1673ffffffffffffffffffffffffffffffffffffffff16815260200190815260200160002060009054906101000a900460ff165b80610bee57506004600082815260200190815260200160002060009054906101000a900473ffffffffffffffffffffffffffffffffffffffff1673ffffffffffffffffffffffffffffffffffffffff163373ffffffffffffffffffffffffffffffffffffffff16145b610c2d576040517f08c379a0000000000000000000000000000000000000000000000000000000008152600401610c2490612a8b565b60405180910390fd5b600360008473ffffffffffffffffffffffffffffffffffffffff1673ffffffffffffffffffffffffffffffffffffffff1681526020019081526020016000206000815480929190600190039190505550600360008373ffffffffffffffffffffffffffffffffffffffff1673ffffffffffffffffffffffffffffffffffffffff16815260200190815260200160002060008154809291906001019190505550816002600083815260200190815260200160002060006101000a81548173ffffffffffffffffffffffffffffffffffffffff021916908373ffffffffffffffffffffffffffffffffffffffff1602179055506004600082815260200190815260200160002060006101000a81549073ffffffffffffffffffffffffffffffffffffffff0219169055808273ffffffffffffffffffffffffffffffffffffffff168473ffffffffffffffffffffffffffffffffffffffff167fddf252ad1be2c89b69c2b068fc378daa952ba7f163c4a11628f55a4df523b3ef60405160405180910390a4505050565b610dbf8383836109b5565b60008273ffffffffffffffffffffffffffffffffffffffff163b1480610ea8575063150b7a0260e01b7bffffffffffffffffffffffffffffffffffffffffffffffffffffffff19168273ffffffffffffffffffffffffffffffffffffffff1663150b7a023386856040518463ffffffff1660e01b8152600401610e4493929190612c26565b6020604051808303816000875af1158015610e63573d6000803e3d6000fd5b505050506040513d601f19601f82011682018060405250810190610e879190612c85565b7bffffffffffffffffffffffffffffffffffffffffffffffffffffffff1916145b610ee7576040517f08c379a0000000000000000000000000000000000000000000000000000000008152600401610ede90612cfe565b60405180910390fd5b505050565b6000600954600854610efe9190612d4d565b341015610f40576040517f08c379a0000000000000000000000000000000000000000000000000000000008152600401610f3790612ddb565b60405180910390fd5b6000600760008154610f5190612dfb565b9190508190559050610f633382611de7565b60405180608001604052808681526020018581526020018481526020013373ffffffffffffffffffffffffffffffffffffffff16815250600a60008381526020019081526020016000206000820151816000019081610fc29190612fef565b506020820151816001019081610fd89190612fef565b506040820151816002019081610fee9190612fef565b5060608201518160030160006101000a81548173ffffffffffffffffffffffffffffffffffffffff021916908373ffffffffffffffffffffffffffffffffffffffff160217905550905050600b60003373ffffffffffffffffffffffffffffffffffffffff1673ffffffffffffffffffffffffffffffffffffffff1681526020019081526020016000208190806001815401808255809150506001900390600052602060002001600090919091909150556009546008546110af9190612d4d565b341115611118573373ffffffffffffffffffffffffffffffffffffffff166108fc6009546008546110e09190612d4d565b346110eb91906130c1565b9081150290604051600060405180830381858888f19350505050158015611116573d6000803e3d6000fd5b505b809150509392505050565b606060008273ffffffffffffffffffffffffffffffffffffffff1660001b905060006040518060400160405280601081526020017f303132333435363738396162636465660000000000000000000000000000000081525090506000602a67ffffffffffffffff81111561119a57611199612512565b5b6040519080825280601f01601f1916602001820160405280156111cc5781602001600182028036833780820191505090505b5090507f300000000000000000000000000000000000000000000000000000000000000081600081518110611204576112036130f5565b5b60200101907effffffffffffffffffffffffffffffffffffffffffffffffffffffffffffff1916908160001a9053507f780000000000000000000000000000000000000000000000000000000000000081600181518110611268576112676130f5565b5b60200101907effffffffffffffffffffffffffffffffffffffffffffffffffffffffffffff1916908160001a90535060005b60148110156113e157600084600c836112b39190613124565b602081106112c4576112c36130f5565b5b1a60f81b60f81c90508360048260ff16901c60ff16815181106112ea576112e96130f5565b5b602001015160f81c60f81b836002846113039190612d4d565b600261130f9190613124565b815181106113205761131f6130f5565b5b60200101907effffffffffffffffffffffffffffffffffffffffffffffffffffffffffffff1916908160001a90535083600f821660ff1681518110611368576113676130f5565b5b602001015160f81c60f81b836002846113819190612d4d565b600361138d9190613124565b8151811061139e5761139d6130f5565b5b60200101907effffffffffffffffffffffffffffffffffffffffffffffffffffffffffffff1916908160001a9053505080806113d990612dfb565b91505061129a565b50809350505050919050565b60008073ffffffffffffffffffffffffffffffffffffffff166002600084815260200190815260200160002060009054906101000a900473ffffffffffffffffffffffffffffffffffffffff1691508173ffffffffffffffffffffffffffffffffffffffff1603611493576040517f08c379a000000000000000000000000000000000000000000000000000000000815260040161148a906131a4565b60405180910390fd5b919050565b60008073ffffffffffffffffffffffffffffffffffffffff168273ffffffffffffffffffffffffffffffffffffffff1603611508576040517f08c379a00000000000000000000000000000000000000000000000000000000081526004016114ff90613210565b60405180910390fd5b600360008373ffffffffffffffffffffffffffffffffffffffff1673ffffffffffffffffffffffffffffffffffffffff168152602001908152602001600020549050919050565b600660009054906101000a900473ffffffffffffffffffffffffffffffffffffffff1681565b6001805461158290612a0e565b80601f01602080910402602001604051908101604052809291908181526020018280546115ae90612a0e565b80156115fb5780601f106115d0576101008083540402835291602001916115fb565b820191906000526020600020905b8154815290600101906020018083116115de57829003601f168201915b505050505081565b80600560003373ffffffffffffffffffffffffffffffffffffffff1673ffffffffffffffffffffffffffffffffffffffff16815260200190815260200160002060008473ffffffffffffffffffffffffffffffffffffffff1673ffffffffffffffffffffffffffffffffffffffff16815260200190815260200160002060006101000a81548160ff0219169083151502179055508173ffffffffffffffffffffffffffffffffffffffff163373ffffffffffffffffffffffffffffffffffffffff167f17307eab39ab6107e8899845ad3d59bd9653f200f220920489ca2b5937696c31836040516116f49190612287565b60405180910390a35050565b600a60205280600052604060002060009150905080600001805461172390612a0e565b80601f016020809104026020016040519081016040528092919081815260200182805461174f90612a0e565b801561179c5780601f106117715761010080835404028352916020019161179c565b820191906000526020600020905b81548152906001019060200180831161177f57829003601f168201915b5050505050908060010180546117b190612a0e565b80601f01602080910402602001604051908101604052809291908181526020018280546117dd90612a0e565b801561182a5780601f106117ff5761010080835404028352916020019161182a565b820191906000526020600020905b81548152906001019060200180831161180d57829003601f168201915b50505050509080600201805461183f90612a0e565b80601f016020809104026020016040519081016040528092919081815260200182805461186b90612a0e565b80156118b85780601f1061188d576101008083540402835291602001916118b8565b820191906000526020600020905b81548152906001019060200180831161189b57829003601f168201915b5050505050908060030160009054906101000a900473ffffffffffffffffffffffffffffffffffffffff16905084565b6118f38585856109b5565b60008473ffffffffffffffffffffffffffffffffffffffff163b14806119e0575063150b7a0260e01b7bffffffffffffffffffffffffffffffffffffffffffffffffffffffff19168473ffffffffffffffffffffffffffffffffffffffff1663150b7a0233888787876040518663ffffffff1660e01b815260040161197c95949392919061325d565b6020604051808303816000875af115801561199b573d6000803e3d6000fd5b505050506040513d601f19601f820116820180604052508101906119bf9190612c85565b7bffffffffffffffffffffffffffffffffffffffffffffffffffffffff1916145b611a1f576040517f08c379a0000000000000000000000000000000000000000000000000000000008152600401611a1690612cfe565b60405180910390fd5b5050505050565b6060611a3182611f1e565b611a70576040517f08c379a0000000000000000000000000000000000000000000000000000000008152600401611a67906132f7565b60405180910390fd5b6000600a6000848152602001908152602001600020604051806080016040529081600082018054611aa090612a0e565b80601f0160208091040260200160405190810160405280929190818152602001828054611acc90612a0e565b8015611b195780601f10611aee57610100808354040283529160200191611b19565b820191906000526020600020905b815481529060010190602001808311611afc57829003601f168201915b50505050508152602001600182018054611b3290612a0e565b80601f0160208091040260200160405190810160405280929190818152602001828054611b5e90612a0e565b8015611bab5780601f10611b8057610100808354040283529160200191611bab565b820191906000526020600020905b815481529060010190602001808311611b8e57829003601f168201915b50505050508152602001600282018054611bc490612a0e565b80601f0160208091040260200160405190810160405280929190818152602001828054611bf090612a0e565b8015611c3d5780601f10611c1257610100808354040283529160200191611c3d565b820191906000526020600020905b815481529060010190602001808311611c2057829003601f168201915b505050505081526020016003820160009054906101000a900473ffffffffffffffffffffffffffffffffffffffff1673ffffffffffffffffffffffffffffffffffffffff1673ffffffffffffffffffffffffffffffffffffffff16815250509050611cab8160600151611123565b816000015182602001518360400151604051602001611ccd949392919061351b565b604051602081830303815290604052915050919050565b600b6020528160005260406000208181548110611d0057600080fd5b90600052602060002001600091509150505481565b60056020528160005260406000206020528060005260406000206000915091509054906101000a900460ff1681565b60085481565b6060600b60008373ffffffffffffffffffffffffffffffffffffffff1673ffffffffffffffffffffffffffffffffffffffff168152602001908152602001600020805480602002602001604051908101604052809291908181526020018280548015611dd557602002820191906000526020600020905b815481526020019060010190808311611dc1575b50505050509050919050565b60095481565b611df18282611f8d565b60008273ffffffffffffffffffffffffffffffffffffffff163b1480611edb575063150b7a0260e01b7bffffffffffffffffffffffffffffffffffffffffffffffffffffffff19168273ffffffffffffffffffffffffffffffffffffffff1663150b7a02336000856040518463ffffffff1660e01b8152600401611e7793929190612c26565b6020604051808303816000875af1158015611e96573d6000803e3d6000fd5b505050506040513d601f19601f82011682018060405250810190611eba9190612c85565b7bffffffffffffffffffffffffffffffffffffffffffffffffffffffff1916145b611f1a576040517f08c379a0000000000000000000000000000000000000000000000000000000008152600401611f1190612cfe565b60405180910390fd5b5050565b60008073ffffffffffffffffffffffffffffffffffffffff16600a600084815260200190815260200160002060030160009054906101000a900473ffffffffffffffffffffffffffffffffffffffff1673ffffffffffffffffffffffffffffffffffffffff1614159050919050565b600073ffffffffffffffffffffffffffffffffffffffff168273ffffffffffffffffffffffffffffffffffffffff1603611ffc576040517f08c379a0000000000000000000000000000000000000000000000000000000008152600401611ff390612bcf565b60405180910390fd5b600073ffffffffffffffffffffffffffffffffffffffff166002600083815260200190815260200160002060009054906101000a900473ffffffffffffffffffffffffffffffffffffffff1673ffffffffffffffffffffffffffffffffffffffff161461209e576040517f08c379a0000000000000000000000000000000000000000000000000000000008152600401612095906135fd565b60405180910390fd5b600360008373ffffffffffffffffffffffffffffffffffffffff1673ffffffffffffffffffffffffffffffffffffffff16815260200190815260200160002060008154809291906001019190505550816002600083815260200190815260200160002060006101000a81548173ffffffffffffffffffffffffffffffffffffffff021916908373ffffffffffffffffffffffffffffffffffffffff160217905550808273ffffffffffffffffffffffffffffffffffffffff16600073ffffffffffffffffffffffffffffffffffffffff167fddf252ad1be2c89b69c2b068fc378daa952ba7f163c4a11628f55a4df523b3ef60405160405180910390a45050565b6000819050919050565b6121b28161219f565b82525050565b60006020820190506121cd60008301846121a9565b92915050565b6000604051905090565b600080fd5b600080fd5b60007fffffffff0000000000000000000000000000000000000000000000000000000082169050919050565b61221c816121e7565b811461222757600080fd5b50565b60008135905061223981612213565b92915050565b600060208284031215612255576122546121dd565b5b60006122638482850161222a565b91505092915050565b60008115159050919050565b6122818161226c565b82525050565b600060208201905061229c6000830184612278565b92915050565b600081519050919050565b600082825260208201905092915050565b60005b838110156122dc5780820151818401526020810190506122c1565b60008484015250505050565b6000601f19601f8301169050919050565b6000612304826122a2565b61230e81856122ad565b935061231e8185602086016122be565b612327816122e8565b840191505092915050565b6000602082019050818103600083015261234c81846122f9565b905092915050565b61235d8161219f565b811461236857600080fd5b50565b60008135905061237a81612354565b92915050565b600060208284031215612396576123956121dd565b5b60006123a48482850161236b565b91505092915050565b600073ffffffffffffffffffffffffffffffffffffffff82169050919050565b60006123d8826123ad565b9050919050565b6123e8816123cd565b82525050565b600060208201905061240360008301846123df565b92915050565b612412816123cd565b811461241d57600080fd5b50565b60008135905061242f81612409565b92915050565b6000806040838503121561244c5761244b6121dd565b5b600061245a85828601612420565b925050602061246b8582860161236b565b9150509250929050565b6000806040838503121561248c5761248b6121dd565b5b600061249a8582860161236b565b92505060206124ab8582860161236b565b9150509250929050565b6000806000606084860312156124ce576124cd6121dd565b5b60006124dc86828701612420565b93505060206124ed86828701612420565b92505060406124fe8682870161236b565b9150509250925092565b600080fd5b600080fd5b7f4e487b7100000000000000000000000000000000000000000000000000000000600052604160045260246000fd5b61254a826122e8565b810181811067ffffffffffffffff8211171561256957612568612512565b5b80604052505050565b600061257c6121d3565b90506125888282612541565b919050565b600067ffffffffffffffff8211156125a8576125a7612512565b5b6125b1826122e8565b9050602081019050919050565b82818337600083830152505050565b60006125e06125db8461258d565b612572565b9050828152602081018484840111156125fc576125fb61250d565b5b6126078482856125be565b509392505050565b600082601f83011261262457612623612508565b5b81356126348482602086016125cd565b91505092915050565b600080600060608486031215612656576126556121dd565b5b600084013567ffffffffffffffff811115612674576126736121e2565b5b6126808682870161260f565b935050602084013567ffffffffffffffff8111156126a1576126a06121e2565b5b6126ad8682870161260f565b925050604084013567ffffffffffffffff8111156126ce576126cd6121e2565b5b6126da8682870161260f565b9150509250925092565b6000602082840312156126fa576126f96121dd565b5b600061270884828501612420565b91505092915050565b61271a8161226c565b811461272557600080fd5b50565b60008135905061273781612711565b92915050565b60008060408385031215612754576127536121dd565b5b600061276285828601612420565b925050602061277385828601612728565b9150509250929050565b6000608082019050818103600083015261279781876122f9565b905081810360208301526127ab81866122f9565b905081810360408301526127bf81856122f9565b90506127ce60608301846123df565b95945050505050565b600080fd5b600080fd5b60008083601f8401126127f7576127f6612508565b5b8235905067ffffffffffffffff811115612814576128136127d7565b5b6020830191508360018202830111156128305761282f6127dc565b5b9250929050565b600080600080600060808688031215612853576128526121dd565b5b600061286188828901612420565b955050602061287288828901612420565b94505060406128838882890161236b565b935050606086013567ffffffffffffffff8111156128a4576128a36121e2565b5b6128b0888289016127e1565b92509250509295509295909350565b600080604083850312156128d6576128d56121dd565b5b60006128e485828601612420565b92505060206128f585828601612420565b9150509250929050565b600081519050919050565b600082825260208201905092915050565b6000819050602082019050919050565b6129348161219f565b82525050565b6000612946838361292b565b60208301905092915050565b6000602082019050919050565b600061296a826128ff565b612974818561290a565b935061297f8361291b565b8060005b838110156129b0578151612997888261293a565b97506129a283612952565b925050600181019050612983565b5085935050505092915050565b600060208201905081810360008301526129d7818461295f565b905092915050565b7f4e487b7100000000000000000000000000000000000000000000000000000000600052602260045260246000fd5b60006002820490506001821680612a2657607f821691505b602082108103612a3957612a386129df565b5b50919050565b7f4e4f545f415554484f52495a4544000000000000000000000000000000000000600082015250565b6000612a75600e836122ad565b9150612a8082612a3f565b602082019050919050565b60006020820190508181036000830152612aa481612a68565b9050919050565b7f43616c6c6572206973206e6f7420746865206f776e6572000000000000000000600082015250565b6000612ae16017836122ad565b9150612aec82612aab565b602082019050919050565b60006020820190508181036000830152612b1081612ad4565b9050919050565b7f57524f4e475f46524f4d00000000000000000000000000000000000000000000600082015250565b6000612b4d600a836122ad565b9150612b5882612b17565b602082019050919050565b60006020820190508181036000830152612b7c81612b40565b9050919050565b7f494e56414c49445f524543495049454e54000000000000000000000000000000600082015250565b6000612bb96011836122ad565b9150612bc482612b83565b602082019050919050565b60006020820190508181036000830152612be881612bac565b9050919050565b600082825260208201905092915050565b50565b6000612c10600083612bef565b9150612c1b82612c00565b600082019050919050565b6000608082019050612c3b60008301866123df565b612c4860208301856123df565b612c5560408301846121a9565b8181036060830152612c6681612c03565b9050949350505050565b600081519050612c7f81612213565b92915050565b600060208284031215612c9b57612c9a6121dd565b5b6000612ca984828501612c70565b91505092915050565b7f554e534146455f524543495049454e5400000000000000000000000000000000600082015250565b6000612ce86010836122ad565b9150612cf382612cb2565b602082019050919050565b60006020820190508181036000830152612d1781612cdb565b9050919050565b7f4e487b7100000000000000000000000000000000000000000000000000000000600052601160045260246000fd5b6000612d588261219f565b9150612d638361219f565b9250828202612d718161219f565b91508282048414831517612d8857612d87612d1e565b5b5092915050565b7f496e73756666696369656e742067617320666565000000000000000000000000600082015250565b6000612dc56014836122ad565b9150612dd082612d8f565b602082019050919050565b60006020820190508181036000830152612df481612db8565b9050919050565b6000612e068261219f565b91507fffffffffffffffffffffffffffffffffffffffffffffffffffffffffffffffff8203612e3857612e37612d1e565b5b600182019050919050565b60008190508160005260206000209050919050565b60006020601f8301049050919050565b600082821b905092915050565b600060088302612ea57fffffffffffffffffffffffffffffffffffffffffffffffffffffffffffffffff82612e68565b612eaf8683612e68565b95508019841693508086168417925050509392505050565b6000819050919050565b6000612eec612ee7612ee28461219f565b612ec7565b61219f565b9050919050565b6000819050919050565b612f0683612ed1565b612f1a612f1282612ef3565b848454612e75565b825550505050565b600090565b612f2f612f22565b612f3a818484612efd565b505050565b5b81811015612f5e57612f53600082612f27565b600181019050612f40565b5050565b601f821115612fa357612f7481612e43565b612f7d84612e58565b81016020851015612f8c578190505b612fa0612f9885612e58565b830182612f3f565b50505b505050565b600082821c905092915050565b6000612fc660001984600802612fa8565b1980831691505092915050565b6000612fdf8383612fb5565b9150826002028217905092915050565b612ff8826122a2565b67ffffffffffffffff81111561301157613010612512565b5b61301b8254612a0e565b613026828285612f62565b600060209050601f8311600181146130595760008415613047578287015190505b6130518582612fd3565b8655506130b9565b601f19841661306786612e43565b60005b8281101561308f5784890151825560018201915060208501945060208101905061306a565b868310156130ac57848901516130a8601f891682612fb5565b8355505b6001600288020188555050505b505050505050565b60006130cc8261219f565b91506130d78361219f565b92508282039050818111156130ef576130ee612d1e565b5b92915050565b7f4e487b7100000000000000000000000000000000000000000000000000000000600052603260045260246000fd5b600061312f8261219f565b915061313a8361219f565b925082820190508082111561315257613151612d1e565b5b92915050565b7f4e4f545f4d494e54454400000000000000000000000000000000000000000000600082015250565b600061318e600a836122ad565b915061319982613158565b602082019050919050565b600060208201905081810360008301526131bd81613181565b9050919050565b7f5a45524f5f414444524553530000000000000000000000000000000000000000600082015250565b60006131fa600c836122ad565b9150613205826131c4565b602082019050919050565b60006020820190508181036000830152613229816131ed565b9050919050565b600061323c8385612bef565b93506132498385846125be565b613252836122e8565b840190509392505050565b600060808201905061327260008301886123df565b61327f60208301876123df565b61328c60408301866121a9565b818103606083015261329f818486613230565b90509695505050505050565b7f55524920517565727920666f72206e6f6e6578697374656e7420746f6b656e00600082015250565b60006132e1601f836122ad565b91506132ec826132ab565b602082019050919050565b60006020820190508181036000830152613310816132d4565b9050919050565b600081905092915050565b7f7b2261646472657373223a202200000000000000000000000000000000000000600082015250565b6000613358600d83613317565b915061336382613322565b600d82019050919050565b6000613379826122a2565b6133838185613317565b93506133938185602086016122be565b80840191505092915050565b7f222c200000000000000000000000000000000000000000000000000000000000600082015250565b60006133d5600383613317565b91506133e08261339f565b600382019050919050565b7f226e616d65223a20220000000000000000000000000000000000000000000000600082015250565b6000613421600983613317565b915061342c826133eb565b600982019050919050565b7f22696d616765223a202200000000000000000000000000000000000000000000600082015250565b600061346d600a83613317565b915061347882613437565b600a82019050919050565b7f22617564696f223a202200000000000000000000000000000000000000000000600082015250565b60006134b9600a83613317565b91506134c482613483565b600a82019050919050565b7f227d000000000000000000000000000000000000000000000000000000000000600082015250565b6000613505600283613317565b9150613510826134cf565b600282019050919050565b60006135268261334b565b9150613532828761336e565b915061353d826133c8565b915061354882613414565b9150613554828661336e565b915061355f826133c8565b915061356a82613460565b9150613576828561336e565b9150613581826133c8565b915061358c826134ac565b9150613598828461336e565b91506135a3826134f8565b915081905095945050505050565b7f414c52454144595f4d494e544544000000000000000000000000000000000000600082015250565b60006135e7600e836122ad565b91506135f2826135b1565b602082019050919050565b60006020820190508181036000830152613616816135da565b905091905056fea264697066735822122088fd7444df2fc8b1e5a6a8178a2543ec608a90e12b968f82cc98a96c2a753b8864736f6c63430008130033",
  "immutableReferences": {},
  "source": "// SPDX-License-Identifier: MIT\r\npragma solidity ^0.8.19;\r\n\r\nimport \"./.deps/ERC721.sol\";\r\n\r\ncontract NFT is ERC721 {\r\n    address public owner;\r\n    uint256 public currentTokenId;\r\n    uint256 public gasLimit;\r\n    uint256 public gasPrice;\r\n\r\n    struct TokenMetaData {\r\n        string name;\r\n        //bad names. Should be imageCID and audioCID\r\n        string imageURI;\r\n        string audioURI;\r\n        address owner;\r\n    }\r\n\r\n    /* ToDo: Create and emit event */\r\n\r\n    mapping(uint256 => TokenMetaData) public tokenMetaData;\r\n    mapping(address => uint256[]) public ownedTokens;\r\n\r\n    constructor(\r\n        string memory _name,\r\n        string memory _symbol\r\n    ) ERC721(_name, _symbol) {\r\n        owner = msg.sender;\r\n    }\r\n\r\n    function setGasParameters(\r\n        uint256 _gasLimit,\r\n        uint256 _gasPrice\r\n    ) public onlyOwner {\r\n        gasLimit = _gasLimit;\r\n        gasPrice = _gasPrice;\r\n    }\r\n\r\n    function mintTo(\r\n        string memory _name,\r\n        string memory _imageURI,\r\n        string memory _audioURI\r\n    ) public payable returns (uint256) {\r\n        require(msg.value >= gasLimit * gasPrice, \"Insufficient gas fee\");\r\n        uint256 newItemId = ++currentTokenId;\r\n        _safeMint(msg.sender, newItemId);\r\n        tokenMetaData[newItemId] = TokenMetaData(\r\n            _name,\r\n            _imageURI,\r\n            _audioURI,\r\n            msg.sender\r\n        );\r\n\r\n        ownedTokens[msg.sender].push(newItemId);\r\n        //ToDo : emit event\r\n\r\n        if (msg.value > gasLimit * gasPrice) {\r\n            payable(msg.sender).transfer(msg.value - gasLimit * gasPrice);\r\n        }\r\n\r\n        return newItemId;\r\n    }\r\n\r\n    function tokenURI(\r\n        uint256 id\r\n    ) public view virtual override returns (string memory) {\r\n        require(_exists(id), \"URI Query for nonexistent token\");\r\n        TokenMetaData memory metadata = tokenMetaData[id];\r\n\r\n        return\r\n            string(\r\n                abi.encodePacked(\r\n                    '{\"address\": \"',\r\n                    addressToString(metadata.owner),\r\n                    '\", ',\r\n                    '\"name\": \"',\r\n                    metadata.name,\r\n                    '\", ',\r\n                    '\"image\": \"',\r\n                    metadata.imageURI,\r\n                    '\", ',\r\n                    '\"audio\": \"',\r\n                    metadata.audioURI,\r\n                    '\"}'\r\n                )\r\n            );\r\n    }\r\n\r\n    function getOwnedTokenIDs(\r\n        address ownerAddress\r\n    ) public view returns (uint256[] memory) {\r\n        return ownedTokens[ownerAddress];\r\n    }\r\n\r\n    function addressToString(\r\n        address _addr\r\n    ) public pure returns (string memory) {\r\n        bytes32 value = bytes32(uint256(uint160(_addr)));\r\n        bytes memory alphabet = \"0123456789abcdef\";\r\n\r\n        bytes memory str = new bytes(42);\r\n        str[0] = \"0\";\r\n        str[1] = \"x\";\r\n        for (uint i = 0; i < 20; i++) {\r\n            uint8 byteValue = uint8(value[i + 12]);\r\n            str[2 + i * 2] = alphabet[byteValue >> 4];\r\n            str[3 + i * 2] = alphabet[byteValue & 0x0f];\r\n        }\r\n        return string(str);\r\n    }\r\n\r\n    function _exists(uint256 id) internal view returns (bool) {\r\n        return tokenMetaData[id].owner != address(0);\r\n    }\r\n\r\n    modifier onlyOwner() {\r\n        require(msg.sender == owner, \"Caller is not the owner\");\r\n        _;\r\n    }\r\n}\r\n",
  "sourcePath": "C:\\Users\\Adrian\\Desktop\\dymension\\webapp2\\JamSession-Backend\\contracts\\NFT.sol",
  "compiler": {
    "name": "solc",
    "version": "0.8.19+commit.7dd6d404.Emscripten.clang"
  },
  "schemaVersion": "3.4.16",
  "updatedAt": "2024-05-10T12:42:01.548Z",
  "networkType": "ethereum",
  "devdoc": {
    "kind": "dev",
    "methods": {},
    "version": 1
  },
  "userdoc": {
    "kind": "user",
    "methods": {},
    "version": 1
  }
}